{
  "contractName": "TussleContract",
  "abi": [
    {
      "inputs": [
        {
          "internalType": "address",
          "name": "_link",
          "type": "address"
        }
      ],
      "stateMutability": "nonpayable",
      "type": "constructor"
    },
    {
      "anonymous": false,
      "inputs": [
        {
          "indexed": true,
          "internalType": "bytes32",
          "name": "id",
          "type": "bytes32"
        }
      ],
      "name": "ChainlinkCancelled",
      "type": "event"
    },
    {
      "anonymous": false,
      "inputs": [
        {
          "indexed": true,
          "internalType": "bytes32",
          "name": "id",
          "type": "bytes32"
        }
      ],
      "name": "ChainlinkFulfilled",
      "type": "event"
    },
    {
      "anonymous": false,
      "inputs": [
        {
          "indexed": true,
          "internalType": "bytes32",
          "name": "id",
          "type": "bytes32"
        }
      ],
      "name": "ChainlinkRequested",
      "type": "event"
    },
    {
      "anonymous": false,
      "inputs": [
        {
          "indexed": true,
          "internalType": "address",
          "name": "previousOwner",
          "type": "address"
        },
        {
          "indexed": true,
          "internalType": "address",
          "name": "newOwner",
          "type": "address"
        }
      ],
      "name": "OwnershipTransferred",
      "type": "event"
    },
    {
      "inputs": [],
      "name": "data",
      "outputs": [
        {
          "internalType": "uint256",
          "name": "",
          "type": "uint256"
        }
      ],
      "stateMutability": "view",
      "type": "function"
    },
    {
      "inputs": [],
      "name": "owner",
      "outputs": [
        {
          "internalType": "address",
          "name": "",
          "type": "address"
        }
      ],
      "stateMutability": "view",
      "type": "function"
    },
    {
      "inputs": [],
      "name": "renounceOwnership",
      "outputs": [],
      "stateMutability": "nonpayable",
      "type": "function"
    },
    {
      "inputs": [
        {
          "internalType": "address",
          "name": "newOwner",
          "type": "address"
        }
      ],
      "name": "transferOwnership",
      "outputs": [],
      "stateMutability": "nonpayable",
      "type": "function"
    },
    {
      "inputs": [],
      "name": "getChainlinkToken",
      "outputs": [
        {
          "internalType": "address",
          "name": "",
          "type": "address"
        }
      ],
      "stateMutability": "view",
      "type": "function"
    },
    {
      "inputs": [
        {
          "internalType": "address",
          "name": "_oracle",
          "type": "address"
        },
        {
          "internalType": "bytes32",
          "name": "_jobId",
          "type": "bytes32"
        },
        {
          "internalType": "uint256",
          "name": "_payment",
          "type": "uint256"
        },
        {
          "internalType": "string",
          "name": "_url",
          "type": "string"
        },
        {
          "internalType": "string",
          "name": "_path",
          "type": "string"
        },
        {
          "internalType": "int256",
          "name": "_times",
          "type": "int256"
        }
      ],
      "name": "createRequestTo",
      "outputs": [
        {
          "internalType": "bytes32",
          "name": "requestId",
          "type": "bytes32"
        }
      ],
      "stateMutability": "nonpayable",
      "type": "function"
    },
    {
      "inputs": [
        {
          "internalType": "bytes32",
          "name": "_requestId",
          "type": "bytes32"
        },
        {
          "internalType": "uint256",
          "name": "_data",
          "type": "uint256"
        }
      ],
      "name": "fulfill",
      "outputs": [],
      "stateMutability": "nonpayable",
      "type": "function"
    },
    {
      "inputs": [],
      "name": "withdrawLink",
      "outputs": [],
      "stateMutability": "nonpayable",
      "type": "function"
    },
    {
      "inputs": [
        {
          "internalType": "bytes32",
          "name": "_requestId",
          "type": "bytes32"
        },
        {
          "internalType": "uint256",
          "name": "_payment",
          "type": "uint256"
        },
        {
          "internalType": "bytes4",
          "name": "_callbackFunctionId",
          "type": "bytes4"
        },
        {
          "internalType": "uint256",
          "name": "_expiration",
          "type": "uint256"
        }
      ],
      "name": "cancelRequest",
      "outputs": [],
      "stateMutability": "nonpayable",
      "type": "function"
    }
  ],
  "bytecode": "0x608060405260016004553480156200001657600080fd5b5060405162001c8438038062001c84833981810160405260208110156200003c57600080fd5b810190808051906020019092919050505060006200005f6200016360201b60201c565b905080600660006101000a81548173ffffffffffffffffffffffffffffffffffffffff021916908373ffffffffffffffffffffffffffffffffffffffff1602179055508073ffffffffffffffffffffffffffffffffffffffff16600073ffffffffffffffffffffffffffffffffffffffff167f8be0079c531659141344cd1fd0a4f28419497f9722a3daafe3b4186f6b6457e060405160405180910390a350600073ffffffffffffffffffffffffffffffffffffffff168173ffffffffffffffffffffffffffffffffffffffff1614156200014a57620001446200016b60201b60201c565b6200015c565b6200015b816200021560201b60201c565b5b5062000259565b600033905090565b6200021373c89bd4e1632d3a43cb03aaad5262cbe4038bc57173ffffffffffffffffffffffffffffffffffffffff166338cc48316040518163ffffffff1660e01b815260040160206040518083038186803b158015620001ca57600080fd5b505afa158015620001df573d6000803e3d6000fd5b505050506040513d6020811015620001f657600080fd5b81019080805190602001909291905050506200021560201b60201c565b565b80600260006101000a81548173ffffffffffffffffffffffffffffffffffffffff021916908373ffffffffffffffffffffffffffffffffffffffff16021790555050565b611a1b80620002696000396000f3fe608060405234801561001057600080fd5b50600436106100935760003560e01c806373d4a13a1161006657806373d4a13a146102b25780638da5cb5b146102d05780638dc654a214610304578063ec65d0f81461030e578063f2fde38b1461037957610093565b8063165d35e11461009857806316ef7f1a146100cc5780634357855e14610270578063715018a6146102a8575b600080fd5b6100a06103bd565b604051808273ffffffffffffffffffffffffffffffffffffffff16815260200191505060405180910390f35b61025a600480360360c08110156100e257600080fd5b81019080803573ffffffffffffffffffffffffffffffffffffffff16906020019092919080359060200190929190803590602001909291908035906020019064010000000081111561013357600080fd5b82018360208201111561014557600080fd5b8035906020019184600183028401116401000000008311171561016757600080fd5b91908080601f016020809104026020016040519081016040528093929190818152602001838380828437600081840152601f19601f820116905080830192505050505050509192919290803590602001906401000000008111156101ca57600080fd5b8201836020820111156101dc57600080fd5b803590602001918460018302840111640100000000831117156101fe57600080fd5b91908080601f016020809104026020016040519081016040528093929190818152602001838380828437600081840152601f19601f820116905080830192505050505050509192919290803590602001909291905050506103cc565b6040518082815260200191505060405180910390f35b6102a66004803603604081101561028657600080fd5b8101908080359060200190929190803590602001909291905050506105aa565b005b6102b06106d1565b005b6102ba61085c565b6040518082815260200191505060405180910390f35b6102d8610862565b604051808273ffffffffffffffffffffffffffffffffffffffff16815260200191505060405180910390f35b61030c61088c565b005b6103776004803603608081101561032457600080fd5b81019080803590602001909291908035906020019092919080357bffffffffffffffffffffffffffffffffffffffffffffffffffffffff1916906020019092919080359060200190929190505050610b24565b005b6103bb6004803603602081101561038f57600080fd5b81019080803573ffffffffffffffffffffffffffffffffffffffff169060200190929190505050610c00565b005b60006103c7610e10565b905090565b60006103d6610e3a565b73ffffffffffffffffffffffffffffffffffffffff16600660009054906101000a900473ffffffffffffffffffffffffffffffffffffffff1673ffffffffffffffffffffffffffffffffffffffff1614610498576040517f08c379a00000000000000000000000000000000000000000000000000000000081526004018080602001828103825260208152602001807f4f776e61626c653a2063616c6c6572206973206e6f7420746865206f776e657281525060200191505060405180910390fd5b6104a06118ed565b6104b28730634357855e60e01b610e42565b90506104fe6040518060400160405280600381526020017f75726c00000000000000000000000000000000000000000000000000000000008152508683610e739092919063ffffffff16565b6105486040518060400160405280600481526020017f70617468000000000000000000000000000000000000000000000000000000008152508583610e739092919063ffffffff16565b6105926040518060400160405280600581526020017f74696d65730000000000000000000000000000000000000000000000000000008152508483610ea69092919063ffffffff16565b61059d888288610ed9565b9150509695505050505050565b816005600082815260200190815260200160002060009054906101000a900473ffffffffffffffffffffffffffffffffffffffff1673ffffffffffffffffffffffffffffffffffffffff163373ffffffffffffffffffffffffffffffffffffffff1614610662576040517f08c379a00000000000000000000000000000000000000000000000000000000081526004018080602001828103825260288152602001806119be6028913960400191505060405180910390fd5b6005600082815260200190815260200160002060006101000a81549073ffffffffffffffffffffffffffffffffffffffff0219169055807f7cc135e0cebb02c3480ae5d74d377283180a2601f8f644edf7987b009316c63a60405160405180910390a281600781905550505050565b6106d9610e3a565b73ffffffffffffffffffffffffffffffffffffffff16600660009054906101000a900473ffffffffffffffffffffffffffffffffffffffff1673ffffffffffffffffffffffffffffffffffffffff161461079b576040517f08c379a00000000000000000000000000000000000000000000000000000000081526004018080602001828103825260208152602001807f4f776e61626c653a2063616c6c6572206973206e6f7420746865206f776e657281525060200191505060405180910390fd5b600073ffffffffffffffffffffffffffffffffffffffff16600660009054906101000a900473ffffffffffffffffffffffffffffffffffffffff1673ffffffffffffffffffffffffffffffffffffffff167f8be0079c531659141344cd1fd0a4f28419497f9722a3daafe3b4186f6b6457e060405160405180910390a36000600660006101000a81548173ffffffffffffffffffffffffffffffffffffffff021916908373ffffffffffffffffffffffffffffffffffffffff160217905550565b60075481565b6000600660009054906101000a900473ffffffffffffffffffffffffffffffffffffffff16905090565b610894610e3a565b73ffffffffffffffffffffffffffffffffffffffff16600660009054906101000a900473ffffffffffffffffffffffffffffffffffffffff1673ffffffffffffffffffffffffffffffffffffffff1614610956576040517f08c379a00000000000000000000000000000000000000000000000000000000081526004018080602001828103825260208152602001807f4f776e61626c653a2063616c6c6572206973206e6f7420746865206f776e657281525060200191505060405180910390fd5b6000610960610e10565b90508073ffffffffffffffffffffffffffffffffffffffff1663a9059cbb338373ffffffffffffffffffffffffffffffffffffffff166370a08231306040518263ffffffff1660e01b8152600401808273ffffffffffffffffffffffffffffffffffffffff16815260200191505060206040518083038186803b1580156109e657600080fd5b505afa1580156109fa573d6000803e3d6000fd5b505050506040513d6020811015610a1057600080fd5b81019080805190602001909291905050506040518363ffffffff1660e01b8152600401808373ffffffffffffffffffffffffffffffffffffffff16815260200182815260200192505050602060405180830381600087803b158015610a7457600080fd5b505af1158015610a88573d6000803e3d6000fd5b505050506040513d6020811015610a9e57600080fd5b8101908080519060200190929190505050610b21576040517f08c379a00000000000000000000000000000000000000000000000000000000081526004018080602001828103825260128152602001807f556e61626c6520746f207472616e73666572000000000000000000000000000081525060200191505060405180910390fd5b50565b610b2c610e3a565b73ffffffffffffffffffffffffffffffffffffffff16600660009054906101000a900473ffffffffffffffffffffffffffffffffffffffff1673ffffffffffffffffffffffffffffffffffffffff1614610bee576040517f08c379a00000000000000000000000000000000000000000000000000000000081526004018080602001828103825260208152602001807f4f776e61626c653a2063616c6c6572206973206e6f7420746865206f776e657281525060200191505060405180910390fd5b610bfa84848484611162565b50505050565b610c08610e3a565b73ffffffffffffffffffffffffffffffffffffffff16600660009054906101000a900473ffffffffffffffffffffffffffffffffffffffff1673ffffffffffffffffffffffffffffffffffffffff1614610cca576040517f08c379a00000000000000000000000000000000000000000000000000000000081526004018080602001828103825260208152602001807f4f776e61626c653a2063616c6c6572206973206e6f7420746865206f776e657281525060200191505060405180910390fd5b600073ffffffffffffffffffffffffffffffffffffffff168173ffffffffffffffffffffffffffffffffffffffff161415610d50576040517f08c379a00000000000000000000000000000000000000000000000000000000081526004018080602001828103825260268152602001806119756026913960400191505060405180910390fd5b8073ffffffffffffffffffffffffffffffffffffffff16600660009054906101000a900473ffffffffffffffffffffffffffffffffffffffff1673ffffffffffffffffffffffffffffffffffffffff167f8be0079c531659141344cd1fd0a4f28419497f9722a3daafe3b4186f6b6457e060405160405180910390a380600660006101000a81548173ffffffffffffffffffffffffffffffffffffffff021916908373ffffffffffffffffffffffffffffffffffffffff16021790555050565b6000600260009054906101000a900473ffffffffffffffffffffffffffffffffffffffff16905090565b600033905090565b610e4a6118ed565b610e526118ed565b610e69858585846112a6909392919063ffffffff16565b9150509392505050565b610e8a82846080015161135690919063ffffffff16565b610ea181846080015161135690919063ffffffff16565b505050565b610ebd82846080015161135690919063ffffffff16565b610ed481846080015161137b90919063ffffffff16565b505050565b600030600454604051602001808373ffffffffffffffffffffffffffffffffffffffff1660601b815260140182815260200192505050604051602081830303815290604052805190602001209050600454836060018181525050836005600083815260200190815260200160002060006101000a81548173ffffffffffffffffffffffffffffffffffffffff021916908373ffffffffffffffffffffffffffffffffffffffff160217905550807fb5e6e01e79f91267dc17b4e6314d5d4d03593d2ceee0fbb452b750bd70ea5af960405160405180910390a2600260009054906101000a900473ffffffffffffffffffffffffffffffffffffffff1673ffffffffffffffffffffffffffffffffffffffff16634000aea08584610ffb876113c7565b6040518463ffffffff1660e01b8152600401808473ffffffffffffffffffffffffffffffffffffffff16815260200183815260200180602001828103825283818151815260200191508051906020019080838360005b8381101561106c578082015181840152602081019050611051565b50505050905090810190601f1680156110995780820380516001836020036101000a031916815260200191505b50945050505050602060405180830381600087803b1580156110ba57600080fd5b505af11580156110ce573d6000803e3d6000fd5b505050506040513d60208110156110e457600080fd5b810190808051906020019092919050505061114a576040517f08c379a000000000000000000000000000000000000000000000000000000000815260040180806020018281038252602381526020018061199b6023913960400191505060405180910390fd5b60016004600082825401925050819055509392505050565b60006005600086815260200190815260200160002060009054906101000a900473ffffffffffffffffffffffffffffffffffffffff1690506005600086815260200190815260200160002060006101000a81549073ffffffffffffffffffffffffffffffffffffffff0219169055847fe1fe3afa0f7f761ff0a8b89086790efd5140d2907ebd5b7ff6bfcb5e075fd4c560405160405180910390a28073ffffffffffffffffffffffffffffffffffffffff16636ee4d553868686866040518563ffffffff1660e01b815260040180858152602001848152602001837bffffffffffffffffffffffffffffffffffffffffffffffffffffffff19168152602001828152602001945050505050600060405180830381600087803b15801561128757600080fd5b505af115801561129b573d6000803e3d6000fd5b505050505050505050565b6112ae6118ed565b6112be8560800151610100611548565b508385600001818152505082856020019073ffffffffffffffffffffffffffffffffffffffff16908173ffffffffffffffffffffffffffffffffffffffff16815250508185604001907bffffffffffffffffffffffffffffffffffffffffffffffffffffffff191690817bffffffffffffffffffffffffffffffffffffffffffffffffffffffff191681525050849050949350505050565b611363826003835161159c565b61137681836116e190919063ffffffff16565b505050565b600081126113945761138f8260008361159c565b6113c3565b6113c2826001837fffffffffffffffffffffffffffffffffffffffffffffffffffffffffffffffff0361159c565b5b5050565b6060634042994660e01b60008084600001518560200151866040015187606001516001896080015160000151604051602401808973ffffffffffffffffffffffffffffffffffffffff1681526020018881526020018781526020018673ffffffffffffffffffffffffffffffffffffffff168152602001857bffffffffffffffffffffffffffffffffffffffffffffffffffffffff1916815260200184815260200183815260200180602001828103825283818151815260200191508051906020019080838360005b838110156114ab578082015181840152602081019050611490565b50505050905090810190601f1680156114d85780820380516001836020036101000a031916815260200191505b509950505050505050505050604051602081830303815290604052907bffffffffffffffffffffffffffffffffffffffffffffffffffffffff19166020820180517bffffffffffffffffffffffffffffffffffffffffffffffffffffffff83818316178352505050509050919050565b61155061195a565b60006020838161155c57fe5b0614611575576020828161156c57fe5b06602003820191505b81836020018181525050604051808452600081528281016020016040525082905092915050565b601781116115c9576115c38160058460ff16901b60ff16178461170390919063ffffffff16565b506116dc565b60ff811161160b576115ee601860058460ff16901b178461170390919063ffffffff16565b50611605816001856117239092919063ffffffff16565b506116db565b61ffff811161164e57611631601960058460ff16901b178461170390919063ffffffff16565b50611648816002856117239092919063ffffffff16565b506116da565b63ffffffff811161169357611676601a60058460ff16901b178461170390919063ffffffff16565b5061168d816004856117239092919063ffffffff16565b506116d9565b67ffffffffffffffff81116116d8576116bf601b60058460ff16901b178461170390919063ffffffff16565b506116d6816008856117239092919063ffffffff16565b505b5b5b5b5b505050565b6116e961195a565b6116fb83846000015151848551611745565b905092915050565b61170b61195a565b61171b83846000015151846117fe565b905092915050565b61172b61195a565b61173c84856000015151858561184c565b90509392505050565b61174d61195a565b825182111561175b57600080fd5b846020015182850111156117865761178585600261177f88602001518887016118ad565b026118c9565b5b6000808651805187602083010193508088870111156117a55787860182525b60208701925050505b602084106117d157805182526020820191506020810190506020840393506117ae565b60006001856020036101000a03905080198251168184511681811785525050879350505050949350505050565b61180661195a565b83602001518310611823576118228460028660200151026118c9565b5b835180516020858301018481538186141561183f576001820183525b5050508390509392505050565b61185461195a565b8460200151848301111561187257611871856002868501026118c9565b5b60006001836101000a039050855183868201018583198251161781528151858801111561189f5784870182525b505085915050949350505050565b6000818311156118bf578290506118c3565b8190505b92915050565b6060826000015190506118dc8383611548565b506118e783826116e1565b50505050565b6040518060a0016040528060008019168152602001600073ffffffffffffffffffffffffffffffffffffffff16815260200160007bffffffffffffffffffffffffffffffffffffffffffffffffffffffff191681526020016000815260200161195461195a565b81525090565b60405180604001604052806060815260200160008152509056fe4f776e61626c653a206e6577206f776e657220697320746865207a65726f2061646472657373756e61626c6520746f207472616e73666572416e6443616c6c20746f206f7261636c65536f75726365206d75737420626520746865206f7261636c65206f66207468652072657175657374a264697066735822122079d7c76836e73ff17bdd4bb588f63a49f8b2a1d0ed42a010b1bd488e07b618dd64736f6c634300060c0033",
  "immutableReferences": {},
  "source": "pragma solidity ^0.6.6;\n\nimport \"@chainlink/contracts/src/v0.6/ChainlinkClient.sol\";\nimport \"@openzeppelin/contracts/access/Ownable.sol\";\n\n/**\n * @title TussleContract is an example contract which requests data from\n * the Chainlink network\n * @dev This contract is designed to work on multiple networks, including\n * local test networks\n */\ncontract TussleContract is ChainlinkClient, Ownable {\n  uint256 public data;\n\n  /**\n   * @notice Deploy the contract with a specified address for the LINK\n   * and Oracle contract addresses\n   * @dev Sets the storage for the specified addresses\n   * @param _link The address of the LINK token contract\n   */\n  constructor(address _link) public {\n    if (_link == address(0)) {\n      setPublicChainlinkToken();\n    } else {\n      setChainlinkToken(_link);\n    }\n  }\n\n  /**\n   * @notice Returns the address of the LINK token\n   * @dev This is the public implementation for chainlinkTokenAddress, which is\n   * an internal method of the ChainlinkClient contract\n   */\n  function getChainlinkToken() public view returns (address) {\n    return chainlinkTokenAddress();\n  }\n\n  /**\n   * @notice Creates a request to the specified Oracle contract address\n   * @dev This function ignores the stored Oracle contract address and\n   * will instead send the request to the address specified\n   * @param _oracle The Oracle contract address to send the request to\n   * @param _jobId The bytes32 JobID to be executed\n   * @param _url The URL to fetch data from\n   * @param _path The dot-delimited path to parse of the response\n   * @param _times The number to multiply the result by\n   */\n  function createRequestTo(\n    address _oracle,\n    bytes32 _jobId,\n    uint256 _payment,\n    string memory _url,\n    string memory _path,\n    int256 _times\n  )\n    public\n    onlyOwner\n    returns (bytes32 requestId)\n  {\n    Chainlink.Request memory req = buildChainlinkRequest(_jobId, address(this), this.fulfill.selector);\n    req.add(\"url\", _url);\n    req.add(\"path\", _path);\n    req.addInt(\"times\", _times);\n    requestId = sendChainlinkRequestTo(_oracle, req, _payment);\n  }\n\n  /**\n   * @notice The fulfill method from requests created by this contract\n   * @dev The recordChainlinkFulfillment protects this function from being called\n   * by anyone other than the oracle address that the request was sent to\n   * @param _requestId The ID that was generated for the request\n   * @param _data The answer provided by the oracle\n   */\n  function fulfill(bytes32 _requestId, uint256 _data)\n    public\n    recordChainlinkFulfillment(_requestId)\n  {\n    data = _data;\n  }\n\n  /**\n   * @notice Allows the owner to withdraw any LINK balance on the contract\n   */\n  function withdrawLink() public onlyOwner {\n    LinkTokenInterface link = LinkTokenInterface(chainlinkTokenAddress());\n    require(link.transfer(msg.sender, link.balanceOf(address(this))), \"Unable to transfer\");\n  }\n\n  /**\n   * @notice Call this method if no response is received within 5 minutes\n   * @param _requestId The ID that was generated for the request to cancel\n   * @param _payment The payment specified for the request to cancel\n   * @param _callbackFunctionId The bytes4 callback function ID specified for\n   * the request to cancel\n   * @param _expiration The expiration generated for the request to cancel\n   */\n  function cancelRequest(\n    bytes32 _requestId,\n    uint256 _payment,\n    bytes4 _callbackFunctionId,\n    uint256 _expiration\n  )\n    public\n    onlyOwner\n  {\n    cancelChainlinkRequest(_requestId, _payment, _callbackFunctionId, _expiration);\n  }\n}\n",
  "sourcePath": "/Users/gokulalex/Apps/eth_apps/TussleNet/contracts/TussleTokenClient.sol",
  "compiler": {
    "name": "solc",
    "version": "0.6.12+commit.27d51765.Emscripten.clang"
  },
  "schemaVersion": "3.2.5",
  "updatedAt": "2020-09-27T08:59:23.976Z",
  "devdoc": {
    "details": "This contract is designed to work on multiple networks, including local test networks",
    "kind": "dev",
    "methods": {
      "cancelRequest(bytes32,uint256,bytes4,uint256)": {
        "params": {
          "_callbackFunctionId": "The bytes4 callback function ID specified for the request to cancel",
          "_expiration": "The expiration generated for the request to cancel",
          "_payment": "The payment specified for the request to cancel",
          "_requestId": "The ID that was generated for the request to cancel"
        }
      },
      "constructor": {
        "details": "Sets the storage for the specified addresses",
        "params": {
          "_link": "The address of the LINK token contract"
        }
      },
      "createRequestTo(address,bytes32,uint256,string,string,int256)": {
        "details": "This function ignores the stored Oracle contract address and will instead send the request to the address specified",
        "params": {
          "_jobId": "The bytes32 JobID to be executed",
          "_oracle": "The Oracle contract address to send the request to",
          "_path": "The dot-delimited path to parse of the response",
          "_times": "The number to multiply the result by",
          "_url": "The URL to fetch data from"
        }
      },
      "fulfill(bytes32,uint256)": {
        "details": "The recordChainlinkFulfillment protects this function from being called by anyone other than the oracle address that the request was sent to",
        "params": {
          "_data": "The answer provided by the oracle",
          "_requestId": "The ID that was generated for the request"
        }
      },
      "getChainlinkToken()": {
        "details": "This is the public implementation for chainlinkTokenAddress, which is an internal method of the ChainlinkClient contract"
      },
      "owner()": {
        "details": "Returns the address of the current owner."
      },
      "renounceOwnership()": {
        "details": "Leaves the contract without owner. It will not be possible to call `onlyOwner` functions anymore. Can only be called by the current owner. NOTE: Renouncing ownership will leave the contract without an owner, thereby removing any functionality that is only available to the owner."
      },
      "transferOwnership(address)": {
        "details": "Transfers ownership of the contract to a new account (`newOwner`). Can only be called by the current owner."
      }
    },
    "title": "TussleContract is an example contract which requests data from the Chainlink network",
    "version": 1
  },
  "userdoc": {
    "kind": "user",
    "methods": {
      "cancelRequest(bytes32,uint256,bytes4,uint256)": {
        "notice": "Call this method if no response is received within 5 minutes"
      },
      "constructor": "Deploy the contract with a specified address for the LINK and Oracle contract addresses",
      "createRequestTo(address,bytes32,uint256,string,string,int256)": {
        "notice": "Creates a request to the specified Oracle contract address"
      },
      "fulfill(bytes32,uint256)": {
        "notice": "The fulfill method from requests created by this contract"
      },
      "getChainlinkToken()": {
        "notice": "Returns the address of the LINK token"
      },
      "withdrawLink()": {
        "notice": "Allows the owner to withdraw any LINK balance on the contract"
      }
    },
    "version": 1
  }
}