{
  "contractName": "TussleStaking",
  "abi": [
    {
      "anonymous": false,
      "inputs": [
        {
          "indexed": false,
          "internalType": "uint256",
          "name": "_id",
          "type": "uint256"
        }
      ],
      "name": "StakeAdded",
      "type": "event"
    },
    {
      "inputs": [],
      "name": "blocksInterval",
      "outputs": [
        {
          "internalType": "uint256",
          "name": "",
          "type": "uint256"
        }
      ],
      "stateMutability": "view",
      "type": "function"
    },
    {
      "inputs": [],
      "name": "lastValidatorUpdatedBlock",
      "outputs": [
        {
          "internalType": "uint256",
          "name": "",
          "type": "uint256"
        }
      ],
      "stateMutability": "view",
      "type": "function"
    },
    {
      "inputs": [
        {
          "internalType": "uint256",
          "name": "",
          "type": "uint256"
        }
      ],
      "name": "stakes",
      "outputs": [
        {
          "internalType": "address",
          "name": "staker",
          "type": "address"
        },
        {
          "internalType": "uint256",
          "name": "amount",
          "type": "uint256"
        },
        {
          "internalType": "uint256",
          "name": "adjusted",
          "type": "uint256"
        }
      ],
      "stateMutability": "view",
      "type": "function"
    },
    {
      "inputs": [],
      "name": "totalAdjusted",
      "outputs": [
        {
          "internalType": "uint256",
          "name": "",
          "type": "uint256"
        }
      ],
      "stateMutability": "view",
      "type": "function"
    },
    {
      "inputs": [
        {
          "internalType": "uint256",
          "name": "",
          "type": "uint256"
        }
      ],
      "name": "validatorSet",
      "outputs": [
        {
          "internalType": "address",
          "name": "",
          "type": "address"
        }
      ],
      "stateMutability": "view",
      "type": "function"
    },
    {
      "inputs": [],
      "name": "stake",
      "outputs": [],
      "stateMutability": "payable",
      "type": "function"
    },
    {
      "inputs": [],
      "name": "updateValidators",
      "outputs": [],
      "stateMutability": "nonpayable",
      "type": "function"
    },
    {
      "inputs": [
        {
          "internalType": "uint256",
          "name": "_seed",
          "type": "uint256"
        }
      ],
      "name": "getLuckyStake",
      "outputs": [
        {
          "components": [
            {
              "internalType": "address",
              "name": "staker",
              "type": "address"
            },
            {
              "internalType": "uint256",
              "name": "amount",
              "type": "uint256"
            },
            {
              "internalType": "uint256",
              "name": "adjusted",
              "type": "uint256"
            }
          ],
          "internalType": "struct TussleStaking.Stake",
          "name": "",
          "type": "tuple"
        }
      ],
      "stateMutability": "view",
      "type": "function"
    },
    {
      "inputs": [
        {
          "internalType": "uint256",
          "name": "_seed",
          "type": "uint256"
        }
      ],
      "name": "geLuckyStakeIndex",
      "outputs": [
        {
          "internalType": "uint256",
          "name": "",
          "type": "uint256"
        }
      ],
      "stateMutability": "view",
      "type": "function"
    },
    {
      "inputs": [],
      "name": "getAllStakes",
      "outputs": [
        {
          "components": [
            {
              "internalType": "address",
              "name": "staker",
              "type": "address"
            },
            {
              "internalType": "uint256",
              "name": "amount",
              "type": "uint256"
            },
            {
              "internalType": "uint256",
              "name": "adjusted",
              "type": "uint256"
            }
          ],
          "internalType": "struct TussleStaking.Stake[]",
          "name": "",
          "type": "tuple[]"
        }
      ],
      "stateMutability": "view",
      "type": "function"
    },
    {
      "inputs": [],
      "name": "getAllValidators",
      "outputs": [
        {
          "internalType": "address[5]",
          "name": "",
          "type": "address[5]"
        }
      ],
      "stateMutability": "view",
      "type": "function"
    },
    {
      "inputs": [
        {
          "internalType": "uint256",
          "name": "_seed",
          "type": "uint256"
        }
      ],
      "name": "randomNumber",
      "outputs": [
        {
          "internalType": "uint256",
          "name": "",
          "type": "uint256"
        }
      ],
      "stateMutability": "view",
      "type": "function"
    },
    {
      "inputs": [
        {
          "internalType": "uint256",
          "name": "_amount",
          "type": "uint256"
        }
      ],
      "name": "adjust",
      "outputs": [
        {
          "internalType": "uint256",
          "name": "",
          "type": "uint256"
        }
      ],
      "stateMutability": "pure",
      "type": "function"
    }
  ],
  "bytecode": "0x6080604052600160035534801561001557600080fd5b50610eac806100256000396000f3fe6080604052600436106100c25760003560e01c8063aad878001161007f578063e64808f311610059578063e64808f31461024d578063f3513a371461028a578063f970dd02146102b5578063ff9809b6146102f2576100c2565b8063aad87800146101a6578063d5a44f86146101e3578063d5be945e14610222576100c2565b80632d35f2a6146100c75780632d497ba2146101045780633a4b66f11461011b5780633c611e0514610125578063839b307d146101505780639bf47c5b1461017b575b600080fd5b3480156100d357600080fd5b506100ee60048036038101906100e991906109bb565b61032f565b6040516100fb9190610d58565b60405180910390f35b34801561011057600080fd5b506101196103d6565b005b6101236104ad565b005b34801561013157600080fd5b5061013a61060a565b6040516101479190610cf6565b60405180910390f35b34801561015c57600080fd5b506101656106d3565b6040516101729190610d73565b60405180910390f35b34801561018757600080fd5b506101906106d9565b60405161019d9190610d73565b60405180910390f35b3480156101b257600080fd5b506101cd60048036038101906101c891906109bb565b6106df565b6040516101da9190610d73565b60405180910390f35b3480156101ef57600080fd5b5061020a600480360381019061020591906109bb565b6106e9565b60405161021993929190610ca4565b60405180910390f35b34801561022e57600080fd5b50610237610740565b6040516102449190610d73565b60405180910390f35b34801561025957600080fd5b50610274600480360381019061026f91906109bb565b610746565b6040516102819190610c89565b60405180910390f35b34801561029657600080fd5b5061029f610779565b6040516102ac9190610cdb565b60405180910390f35b3480156102c157600080fd5b506102dc60048036038101906102d791906109bb565b6107fa565b6040516102e99190610d73565b60405180910390f35b3480156102fe57600080fd5b50610319600480360381019061031491906109bb565b610833565b6040516103269190610d73565b60405180910390f35b610337610895565b600061034283610833565b8154811061034c57fe5b90600052602060002090600302016040518060600160405290816000820160009054906101000a900473ffffffffffffffffffffffffffffffffffffffff1673ffffffffffffffffffffffffffffffffffffffff1673ffffffffffffffffffffffffffffffffffffffff168152602001600182015481526020016002820154815250509050919050565b4360025460035401111561041f576040517f08c379a000000000000000000000000000000000000000000000000000000000815260040161041690610d38565b60405180910390fd5b6104276108cc565b60005b60058110156104905761043c8161032f565b6000015182826005811061044c57fe5b602002019073ffffffffffffffffffffffffffffffffffffffff16908173ffffffffffffffffffffffffffffffffffffffff1681525050808060010191505061042a565b508060049060056104a29291906108ee565b504360028190555050565b600034116104f0576040517f08c379a00000000000000000000000000000000000000000000000000000000081526004016104e790610d18565b60405180910390fd5b60006104fb346106df565b9050600080805490509050600060405180606001604052803373ffffffffffffffffffffffffffffffffffffffff16815260200134815260200184815250908060018154018082558091505060019003906000526020600020906003020160009091909190915060008201518160000160006101000a81548173ffffffffffffffffffffffffffffffffffffffff021916908373ffffffffffffffffffffffffffffffffffffffff16021790555060208201518160010155604082015181600201555050816001600082825401925050819055507f7dc4148fd3bf433167a80cfffeec7e61ab7018a9ee10b397bbad4796aff4d38e816040516105fe9190610d73565b60405180910390a15050565b60606000805480602002602001604051908101604052809291908181526020016000905b828210156106ca57838290600052602060002090600302016040518060600160405290816000820160009054906101000a900473ffffffffffffffffffffffffffffffffffffffff1673ffffffffffffffffffffffffffffffffffffffff1673ffffffffffffffffffffffffffffffffffffffff168152602001600182015481526020016002820154815250508152602001906001019061062e565b50505050905090565b60015481565b60035481565b6000819050919050565b600081815481106106f657fe5b90600052602060002090600302016000915090508060000160009054906101000a900473ffffffffffffffffffffffffffffffffffffffff16908060010154908060020154905083565b60025481565b6004816005811061075357fe5b016000915054906101000a900473ffffffffffffffffffffffffffffffffffffffff1681565b6107816108cc565b60046005806020026040519081016040528092919082600580156107f0576020028201915b8160009054906101000a900473ffffffffffffffffffffffffffffffffffffffff1673ffffffffffffffffffffffffffffffffffffffff16815260200190600101908083116107a6575b5050505050905090565b6000600143034082604051602001610813929190610c5d565b6040516020818303038152906040528051906020012060001c9050919050565b600080600154610842846107fa565b8161084957fe5b06905060005b6000821315610888576000818154811061086557fe5b90600052602060002090600302016002015482039150808060010191505061084f565b6001810392505050919050565b6040518060600160405280600073ffffffffffffffffffffffffffffffffffffffff16815260200160008152602001600081525090565b6040518060a00160405280600590602082028036833780820191505090505090565b826005810192821561095a579160200282015b828111156109595782518260006101000a81548173ffffffffffffffffffffffffffffffffffffffff021916908373ffffffffffffffffffffffffffffffffffffffff16021790555091602001919060010190610901565b5b509050610967919061096b565b5090565b5b808211156109a257600081816101000a81549073ffffffffffffffffffffffffffffffffffffffff02191690555060010161096c565b5090565b6000813590506109b581610e5f565b92915050565b6000602082840312156109cd57600080fd5b60006109db848285016109a6565b91505092915050565b60006109f08383610a14565b60208301905092915050565b6000610a088383610ba4565b60608301905092915050565b610a1d81610e05565b82525050565b610a2c81610e05565b82525050565b610a3b81610da8565b610a458184610dd8565b9250610a5082610d8e565b8060005b83811015610a81578151610a6887826109e4565b9650610a7383610dbe565b925050600181019050610a54565b505050505050565b6000610a9482610db3565b610a9e8185610de3565b9350610aa983610d98565b8060005b83811015610ada578151610ac188826109fc565b9750610acc83610dcb565b925050600181019050610aad565b5085935050505092915050565b610af8610af382610e17565b610e4b565b82525050565b6000610b0b601b83610df4565b91507f7374616b652073686f756c64206265206d6f7265207468616e203000000000006000830152602082019050919050565b6000610b4b602283610df4565b91507f63616e6e6f74207570646174652076616c696461746f727320746f6f2065617260008301527f6c790000000000000000000000000000000000000000000000000000000000006020830152604082019050919050565b606082016000820151610bba6000850182610a14565b506020820151610bcd6020850182610c28565b506040820151610be06040850182610c28565b50505050565b606082016000820151610bfc6000850182610a14565b506020820151610c0f6020850182610c28565b506040820151610c226040850182610c28565b50505050565b610c3181610e41565b82525050565b610c4081610e41565b82525050565b610c57610c5282610e41565b610e55565b82525050565b6000610c698285610ae7565b602082019150610c798284610c46565b6020820191508190509392505050565b6000602082019050610c9e6000830184610a23565b92915050565b6000606082019050610cb96000830186610a23565b610cc66020830185610c37565b610cd36040830184610c37565b949350505050565b600060a082019050610cf06000830184610a32565b92915050565b60006020820190508181036000830152610d108184610a89565b905092915050565b60006020820190508181036000830152610d3181610afe565b9050919050565b60006020820190508181036000830152610d5181610b3e565b9050919050565b6000606082019050610d6d6000830184610be6565b92915050565b6000602082019050610d886000830184610c37565b92915050565b6000819050919050565b6000819050602082019050919050565b600060059050919050565b600081519050919050565b6000602082019050919050565b6000602082019050919050565b600081905092915050565b600082825260208201905092915050565b600082825260208201905092915050565b6000610e1082610e21565b9050919050565b6000819050919050565b600073ffffffffffffffffffffffffffffffffffffffff82169050919050565b6000819050919050565b6000819050919050565b6000819050919050565b610e6881610e41565b8114610e7357600080fd5b5056fea26469706673582212206aec29a51181048dfa113d7eca28e4e9b83c26ad77a3ac8a9fb50acc98dcff9664736f6c634300060c0033",
  "immutableReferences": {},
  "source": "pragma solidity ^0.6.6;\npragma experimental ABIEncoderV2;\n\ncontract TussleStaking {\n  struct Stake {\n    address staker;\n    uint256 amount;\n    uint256 adjusted; /// @dev adjusted staking amount which will be considered for PoS\n  }\n\n  Stake[] public stakes;\n  uint256 public totalAdjusted;\n\n  uint256 public lastValidatorUpdatedBlock;\n  uint256 public blocksInterval = 1; /// @dev interval for calling updateValidators repeatedly\n  address[5] public validatorSet;\n\n  event StakeAdded(uint256 _id);\n\n  function stake() public payable {\n    require(msg.value > 0, 'stake should be more than 0');\n\n    // TODO: revert if less gas is sent\n\n    uint256 _adjusted = adjust(msg.value);\n    uint256 _stakeId = stakes.length;\n\n    stakes.push(Stake({\n      staker: msg.sender,\n      amount: msg.value,\n      adjusted: _adjusted\n    }));\n\n    totalAdjusted += _adjusted;\n\n    emit StakeAdded(_stakeId);\n  }\n\n  // TODO: move to another contract\n  function updateValidators() public {\n    require(blocksInterval + lastValidatorUpdatedBlock <= block.number, 'cannot update validators too early');\n\n    address[5] memory _newValidatorSet;\n\n    for(uint256 i = 0; i < 5; i++) {\n      _newValidatorSet[i] = getLuckyStake(i).staker;\n    }\n\n    validatorSet = _newValidatorSet;\n    lastValidatorUpdatedBlock = block.number;\n  }\n\n  function getLuckyStake(uint256 _seed) public view returns (Stake memory) {\n    return stakes[geLuckyStakeIndex(_seed)];\n  }\n\n  function geLuckyStakeIndex(uint256 _seed) public view returns (uint256) {\n    int256 _luckyStake = int256(randomNumber(_seed) % totalAdjusted);\n\n    uint256 i = 0;\n    while(_luckyStake > 0) {\n      _luckyStake -= int256(stakes[i].adjusted);\n      i++;\n    }\n\n    return i - 1;\n  }\n\n  function getAllStakes() public view returns(Stake[] memory) {\n    return stakes;\n  }\n\n  function getAllValidators() public view returns(address[5] memory) {\n    return validatorSet;\n  }\n\n  function randomNumber(uint256 _seed) public view returns (uint256) {\n    return uint256(keccak256(abi.encodePacked(blockhash(block.number - 1), _seed)));\n  }\n\n  function adjust(uint256 _amount) public pure returns (uint256) {\n    // TODO: add a quadratic adjustment (should be designed based on\n    //  currency total supply and expected staking supply)\n    return _amount;\n  }\n}\n",
  "sourcePath": "/Users/gokulalex/Apps/eth_apps/TussleNet/contracts/TussleStaking.sol",
  "compiler": {
    "name": "solc",
    "version": "0.6.12+commit.27d51765.Emscripten.clang"
  },
  "schemaVersion": "3.2.5",
  "updatedAt": "2020-09-27T17:59:36.470Z",
  "devdoc": {
    "kind": "dev",
    "methods": {},
    "stateVariables": {
      "validatorSet": {
        "details": "interval for calling updateValidators repeatedly"
      }
    },
    "version": 1
  },
  "userdoc": {
    "kind": "user",
    "methods": {},
    "version": 1
  }
}