{
  "contractName": "TussleDAO",
  "abi": [
    {
      "inputs": [],
      "stateMutability": "nonpayable",
      "type": "constructor"
    },
    {
      "anonymous": false,
      "inputs": [
        {
          "indexed": true,
          "internalType": "uint256",
          "name": "campaignID",
          "type": "uint256"
        },
        {
          "indexed": true,
          "internalType": "address",
          "name": "from",
          "type": "address"
        },
        {
          "indexed": true,
          "internalType": "uint32",
          "name": "bnum",
          "type": "uint32"
        },
        {
          "indexed": false,
          "internalType": "uint96",
          "name": "deposit",
          "type": "uint96"
        },
        {
          "indexed": false,
          "internalType": "uint16",
          "name": "commitBalkline",
          "type": "uint16"
        },
        {
          "indexed": false,
          "internalType": "uint16",
          "name": "commitDeadline",
          "type": "uint16"
        },
        {
          "indexed": false,
          "internalType": "uint256",
          "name": "bountypot",
          "type": "uint256"
        }
      ],
      "name": "LogCampaignAdded",
      "type": "event"
    },
    {
      "anonymous": false,
      "inputs": [
        {
          "indexed": true,
          "internalType": "uint256",
          "name": "CampaignId",
          "type": "uint256"
        },
        {
          "indexed": true,
          "internalType": "address",
          "name": "from",
          "type": "address"
        },
        {
          "indexed": false,
          "internalType": "bytes32",
          "name": "commitment",
          "type": "bytes32"
        }
      ],
      "name": "LogCommit",
      "type": "event"
    },
    {
      "anonymous": false,
      "inputs": [
        {
          "indexed": true,
          "internalType": "uint256",
          "name": "CampaignId",
          "type": "uint256"
        },
        {
          "indexed": true,
          "internalType": "address",
          "name": "from",
          "type": "address"
        },
        {
          "indexed": false,
          "internalType": "uint256",
          "name": "bountypot",
          "type": "uint256"
        }
      ],
      "name": "LogFollow",
      "type": "event"
    },
    {
      "anonymous": false,
      "inputs": [
        {
          "indexed": true,
          "internalType": "uint256",
          "name": "CampaignId",
          "type": "uint256"
        },
        {
          "indexed": true,
          "internalType": "address",
          "name": "from",
          "type": "address"
        },
        {
          "indexed": false,
          "internalType": "uint256",
          "name": "secret",
          "type": "uint256"
        }
      ],
      "name": "LogReveal",
      "type": "event"
    },
    {
      "inputs": [],
      "name": "TussleRandomContractAddress",
      "outputs": [
        {
          "internalType": "address",
          "name": "",
          "type": "address"
        }
      ],
      "stateMutability": "view",
      "type": "function"
    },
    {
      "inputs": [
        {
          "internalType": "uint256",
          "name": "",
          "type": "uint256"
        }
      ],
      "name": "campaigns",
      "outputs": [
        {
          "internalType": "uint32",
          "name": "bnum",
          "type": "uint32"
        },
        {
          "internalType": "uint96",
          "name": "deposit",
          "type": "uint96"
        },
        {
          "internalType": "uint16",
          "name": "commitBalkline",
          "type": "uint16"
        },
        {
          "internalType": "uint16",
          "name": "commitDeadline",
          "type": "uint16"
        },
        {
          "internalType": "uint256",
          "name": "random",
          "type": "uint256"
        },
        {
          "internalType": "bool",
          "name": "settled",
          "type": "bool"
        },
        {
          "internalType": "uint256",
          "name": "bountypot",
          "type": "uint256"
        },
        {
          "internalType": "uint32",
          "name": "commitNum",
          "type": "uint32"
        },
        {
          "internalType": "uint32",
          "name": "revealsNum",
          "type": "uint32"
        }
      ],
      "stateMutability": "view",
      "type": "function"
    },
    {
      "inputs": [],
      "name": "founder",
      "outputs": [
        {
          "internalType": "address",
          "name": "",
          "type": "address"
        }
      ],
      "stateMutability": "view",
      "type": "function"
    },
    {
      "inputs": [],
      "name": "numCampaigns",
      "outputs": [
        {
          "internalType": "uint256",
          "name": "",
          "type": "uint256"
        }
      ],
      "stateMutability": "view",
      "type": "function"
    },
    {
      "inputs": [
        {
          "internalType": "uint32",
          "name": "_bnum",
          "type": "uint32"
        },
        {
          "internalType": "uint96",
          "name": "_deposit",
          "type": "uint96"
        },
        {
          "internalType": "uint16",
          "name": "_commitBalkline",
          "type": "uint16"
        },
        {
          "internalType": "uint16",
          "name": "_commitDeadline",
          "type": "uint16"
        }
      ],
      "name": "newCampaign",
      "outputs": [
        {
          "internalType": "uint256",
          "name": "_campaignID",
          "type": "uint256"
        }
      ],
      "stateMutability": "payable",
      "type": "function"
    },
    {
      "inputs": [
        {
          "internalType": "uint256",
          "name": "_campaignID",
          "type": "uint256"
        }
      ],
      "name": "follow",
      "outputs": [
        {
          "internalType": "bool",
          "name": "",
          "type": "bool"
        }
      ],
      "stateMutability": "payable",
      "type": "function"
    },
    {
      "inputs": [
        {
          "internalType": "uint256",
          "name": "_campaignID",
          "type": "uint256"
        },
        {
          "internalType": "bytes32",
          "name": "_hs",
          "type": "bytes32"
        }
      ],
      "name": "commit",
      "outputs": [],
      "stateMutability": "payable",
      "type": "function"
    },
    {
      "inputs": [
        {
          "internalType": "uint256",
          "name": "_campaignID",
          "type": "uint256"
        }
      ],
      "name": "getCommitment",
      "outputs": [
        {
          "internalType": "bytes32",
          "name": "",
          "type": "bytes32"
        }
      ],
      "stateMutability": "view",
      "type": "function"
    },
    {
      "inputs": [
        {
          "internalType": "uint256",
          "name": "_s",
          "type": "uint256"
        }
      ],
      "name": "shaCommit",
      "outputs": [
        {
          "internalType": "bytes32",
          "name": "",
          "type": "bytes32"
        }
      ],
      "stateMutability": "pure",
      "type": "function"
    },
    {
      "inputs": [
        {
          "internalType": "uint256",
          "name": "_campaignID",
          "type": "uint256"
        },
        {
          "internalType": "uint256",
          "name": "_s",
          "type": "uint256"
        }
      ],
      "name": "reveal",
      "outputs": [],
      "stateMutability": "nonpayable",
      "type": "function"
    },
    {
      "inputs": [
        {
          "internalType": "uint256",
          "name": "_campaignID",
          "type": "uint256"
        }
      ],
      "name": "getRandom",
      "outputs": [
        {
          "internalType": "uint256",
          "name": "",
          "type": "uint256"
        }
      ],
      "stateMutability": "nonpayable",
      "type": "function"
    },
    {
      "inputs": [
        {
          "internalType": "uint256",
          "name": "_campaignID",
          "type": "uint256"
        }
      ],
      "name": "getMyBounty",
      "outputs": [],
      "stateMutability": "nonpayable",
      "type": "function"
    },
    {
      "inputs": [
        {
          "internalType": "uint256",
          "name": "_campaignID",
          "type": "uint256"
        }
      ],
      "name": "refundBounty",
      "outputs": [],
      "stateMutability": "nonpayable",
      "type": "function"
    }
  ],
  "bytecode": "0x608060405273dd3782915140c8f3b190b5d67eac6dc5760c46e9600360006101000a81548173ffffffffffffffffffffffffffffffffffffffff021916908373ffffffffffffffffffffffffffffffffffffffff16021790555034801561006557600080fd5b5033600260006101000a81548173ffffffffffffffffffffffffffffffffffffffff021916908373ffffffffffffffffffffffffffffffffffffffff160217905550611705806100b66000396000f3fe6080604052600436106100c25760003560e01c806369bcdb7d1161007f578063ba487e6211610059578063ba487e6214610387578063cd4b691414610403578063cfb3a49314610452578063f2f038771461048d576100c2565b806369bcdb7d146102a45780638a8e5afb146102f35780639348cef714610342576100c2565b8063141961bc146100c75780631e7e0a8e146101785780632c0f7b6f146101b9578063384b1393146101e45780634d853ee51461022857806358b1f29c14610269575b600080fd5b3480156100d357600080fd5b50610100600480360360208110156100ea57600080fd5b81019080803590602001909291905050506104c5565b604051808a63ffffffff168152602001896bffffffffffffffffffffffff1681526020018861ffff1681526020018761ffff16815260200186815260200185151581526020018481526020018363ffffffff1681526020018263ffffffff168152602001995050505050505050505060405180910390f35b34801561018457600080fd5b5061018d610591565b604051808273ffffffffffffffffffffffffffffffffffffffff16815260200191505060405180910390f35b3480156101c557600080fd5b506101ce6105b7565b6040518082815260200191505060405180910390f35b610210600480360360208110156101fa57600080fd5b81019080803590602001909291905050506105bd565b60405180821515815260200191505060405180910390f35b34801561023457600080fd5b5061023d610636565b604051808273ffffffffffffffffffffffffffffffffffffffff16815260200191505060405180910390f35b34801561027557600080fd5b506102a26004803603602081101561028c57600080fd5b810190808035906020019092919050505061065c565b005b3480156102b057600080fd5b506102dd600480360360208110156102c757600080fd5b8101908080359060200190929190505050610688565b6040518082815260200191505060405180910390f35b3480156102ff57600080fd5b5061032c6004803603602081101561031657600080fd5b81019080803590602001909291905050506106fb565b6040518082815260200191505060405180910390f35b34801561034e57600080fd5b506103856004803603604081101561036557600080fd5b81019080803590602001909291908035906020019092919050505061072b565b005b6103ed6004803603608081101561039d57600080fd5b81019080803563ffffffff16906020019092919080356bffffffffffffffffffffffff169060200190929190803561ffff169060200190929190803561ffff1690602001909291905050506107a1565b6040518082815260200191505060405180910390f35b34801561040f57600080fd5b5061043c6004803603602081101561042657600080fd5b8101908080359060200190929190505050610a48565b6040518082815260200191505060405180910390f35b34801561045e57600080fd5b5061048b6004803603602081101561047557600080fd5b8101908080359060200190929190505050610a79565b005b6104c3600480360360408110156104a357600080fd5b810190808035906020019092919080359060200190929190505050610aec565b005b600181815481106104d257fe5b90600052602060002090600802016000915090508060000160009054906101000a900463ffffffff16908060000160049054906101000a90046bffffffffffffffffffffffff16908060000160109054906101000a900461ffff16908060000160129054906101000a900461ffff16908060010154908060020160009054906101000a900460ff16908060030154908060040160009054906101000a900463ffffffff16908060040160049054906101000a900463ffffffff16905089565b600360009054906101000a900473ffffffffffffffffffffffffffffffffffffffff1681565b60005481565b600080600183815481106105cd57fe5b9060005260206000209060080201905060008160050160003373ffffffffffffffffffffffffffffffffffffffff1673ffffffffffffffffffffffffffffffffffffffff168152602001908152602001600020905061062d848383610b2b565b92505050919050565b600260009054906101000a900473ffffffffffffffffffffffffffffffffffffffff1681565b60006001828154811061066b57fe5b9060005260206000209060080201905061068481610cfb565b5050565b6000806001838154811061069857fe5b9060005260206000209060080201905060008160060160003373ffffffffffffffffffffffffffffffffffffffff1673ffffffffffffffffffffffffffffffffffffffff1681526020019081526020016000209050806001015492505050919050565b60008160405160200180828152602001915050604051602081830303815290604052805190602001209050919050565b60006001838154811061073a57fe5b9060005260206000209060080201905060008160060160003373ffffffffffffffffffffffffffffffffffffffff1673ffffffffffffffffffffffffffffffffffffffff168152602001908152602001600020905061079b84848484610ef8565b50505050565b60008483838263ffffffff1643106107b857600080fd5b60008261ffff16116107c957600080fd5b60008161ffff16116107da57600080fd5b8161ffff168161ffff16106107ee57600080fd5b8161ffff16830363ffffffff16431061080657600080fd5b866bffffffffffffffffffffffff166000811161082257600080fd5b600180549050945060006001868154811061083957fe5b906000526020600020906008020190506000808154809291906001019190505550898160000160006101000a81548163ffffffff021916908363ffffffff160217905550888160000160046101000a8154816bffffffffffffffffffffffff02191690836bffffffffffffffffffffffff160217905550878160000160106101000a81548161ffff021916908361ffff160217905550868160000160126101000a81548161ffff021916908361ffff16021790555034816003018190555060405180604001604052803373ffffffffffffffffffffffffffffffffffffffff168152602001348152508160050160003373ffffffffffffffffffffffffffffffffffffffff1673ffffffffffffffffffffffffffffffffffffffff16815260200190815260200160002060008201518160000160006101000a81548173ffffffffffffffffffffffffffffffffffffffff021916908373ffffffffffffffffffffffffffffffffffffffff160217905550602082015181600101559050508963ffffffff163373ffffffffffffffffffffffffffffffffffffffff16877f1fec0e961ed9a5d582eb83ec0029dc7c1f0cdd44cfae6f49c8e316b8005d15168c8c8c3460405180856bffffffffffffffffffffffff1681526020018461ffff1681526020018361ffff16815260200182815260200194505050505060405180910390a45050505050949350505050565b60008060018381548110610a5857fe5b90600052602060002090600802019050610a718161106c565b915050919050565b600060018281548110610a8857fe5b9060005260206000209060080201905060008160060160003373ffffffffffffffffffffffffffffffffffffffff1673ffffffffffffffffffffffffffffffffffffffff1681526020019081526020016000209050610ae782826111c7565b505050565b806000811415610afb57600080fd5b600060018481548110610b0a57fe5b90600052602060002090600802019050610b25848483611278565b50505050565b60008260000160009054906101000a900463ffffffff1663ffffffff168360000160129054906101000a900461ffff168061ffff168203431115610b6e57600080fd5b8360000160009054906101000a900473ffffffffffffffffffffffffffffffffffffffff16600073ffffffffffffffffffffffffffffffffffffffff168173ffffffffffffffffffffffffffffffffffffffff1614610bcc57600080fd5b34866003016000828254019250508190555060405180604001604052803373ffffffffffffffffffffffffffffffffffffffff168152602001348152508660050160003373ffffffffffffffffffffffffffffffffffffffff1673ffffffffffffffffffffffffffffffffffffffff16815260200190815260200160002060008201518160000160006101000a81548173ffffffffffffffffffffffffffffffffffffffff021916908373ffffffffffffffffffffffffffffffffffffffff160217905550602082015181600101559050503373ffffffffffffffffffffffffffffffffffffffff16877f23dccbd65d14a6f1eca0cb7a8c085ea070cc1dc36fde87272dcd7b2e0c4748b2346040518082815260200191505060405180910390a3600193505050509392505050565b8060000160009054906101000a900463ffffffff1663ffffffff1680431015610d2357600080fd5b8160040160009054906101000a900463ffffffff168260040160049054906101000a900463ffffffff168063ffffffff168263ffffffff16148015610d6f575060008263ffffffff1614155b15610d7957600080fd5b8360050160003373ffffffffffffffffffffffffffffffffffffffff1673ffffffffffffffffffffffffffffffffffffffff16815260200190815260200160002060000160009054906101000a900473ffffffffffffffffffffffffffffffffffffffff163373ffffffffffffffffffffffffffffffffffffffff168173ffffffffffffffffffffffffffffffffffffffff1614610e1657600080fd5b60008560050160003373ffffffffffffffffffffffffffffffffffffffff1673ffffffffffffffffffffffffffffffffffffffff16815260200190815260200160002060010154905060008660050160003373ffffffffffffffffffffffffffffffffffffffff1673ffffffffffffffffffffffffffffffffffffffff168152602001908152602001600020600101819055503373ffffffffffffffffffffffffffffffffffffffff166108fc829081150290604051600060405180830381858888f19350505050158015610eef573d6000803e3d6000fd5b50505050505050565b8160000160009054906101000a900463ffffffff1663ffffffff168260000160129054906101000a900461ffff168061ffff1682034311610f3857600080fd5b814310610f4457600080fd5b8483600101548082604051602001808281526020019150506040516020818303038152906040528051906020012014610f7c57600080fd5b8460030160009054906101000a900460ff168015610f9957600080fd5b87866000018190555060018660030160006101000a81548160ff02191690831515021790555086600401600481819054906101000a900463ffffffff168092919060010191906101000a81548163ffffffff021916908363ffffffff16021790555050856000015487600101600082825418925050819055503373ffffffffffffffffffffffffffffffffffffffff16897f9141bfaedbc77aa7b8d9c989cd81909d95bb1677e556e34cfd45e50e0bea29678a6040518082815260200191505060405180910390a3505050505050505050565b60008160000160009054906101000a900463ffffffff1663ffffffff168043101561109657600080fd5b8260040160009054906101000a900463ffffffff1663ffffffff168360040160049054906101000a900463ffffffff1663ffffffff1614156111c05760018360020160006101000a81548160ff0219169083151502179055506000804390506000600360009054906101000a900473ffffffffffffffffffffffffffffffffffffffff1690508073ffffffffffffffffffffffffffffffffffffffff1663b37217a4836040518263ffffffff1660e01b815260040180828152602001915050602060405180830381600087803b15801561116f57600080fd5b505af1158015611183573d6000803e3d6000fd5b505050506040513d602081101561119957600080fd5b810190808051906020019092919050505092508260001c86600101540194505050506111c1565b5b50919050565b8160000160009054906101000a900463ffffffff1663ffffffff16804310156111ef57600080fd5b8160030160019054906101000a900460ff16801561120c57600080fd5b60008460040160049054906101000a900463ffffffff1663ffffffff161115611265578260030160009054906101000a900460ff16156112605760006112518561152a565b905061125e8186866115cb565b505b611272565b611271600085856115cb565b5b50505050565b8060000160049054906101000a90046bffffffffffffffffffffffff166bffffffffffffffffffffffff168034146112af57600080fd5b8160000160009054906101000a900463ffffffff1663ffffffff168260000160109054906101000a900461ffff168360000160129054906101000a900461ffff168161ffff16830343101561130357600080fd5b8061ffff16830343111561131657600080fd5b8460060160003373ffffffffffffffffffffffffffffffffffffffff1673ffffffffffffffffffffffffffffffffffffffff168152602001908152602001600020600101546000811461136857600080fd5b85600701600088815260200190815260200160002060009054906101000a900460ff161561139557600080fd5b6040518060a001604052806000815260200188815260200160008152602001600015158152602001600015158152508660060160003373ffffffffffffffffffffffffffffffffffffffff1673ffffffffffffffffffffffffffffffffffffffff16815260200190815260200160002060008201518160000155602082015181600101556040820151816002015560608201518160030160006101000a81548160ff02191690831515021790555060808201518160030160016101000a81548160ff02191690831515021790555090505085600401600081819054906101000a900463ffffffff168092919060010191906101000a81548163ffffffff021916908363ffffffff16021790555050600186600701600089815260200190815260200160002060006101000a81548160ff0219169083151502179055503373ffffffffffffffffffffffffffffffffffffffff16887f918c00c65dd2a8dee4c6985d1d67f04aa8cd2c93e8d427d398a90444c7f7c75e896040518082815260200191505060405180910390a35050505050505050565b60008160040160049054906101000a900463ffffffff1663ffffffff168260040160009054906101000a900463ffffffff1663ffffffff16111561159b578160040160049054906101000a900463ffffffff1663ffffffff1661158c83611669565b8161159357fe5b0490506115c6565b8160040160049054906101000a900463ffffffff1663ffffffff168260030154816115c257fe5b0490505b919050565b82816002018190555060018160030160016101000a81548160ff0219169083151502179055503373ffffffffffffffffffffffffffffffffffffffff166108fc8360000160049054906101000a90046bffffffffffffffffffffffff166bffffffffffffffffffffffff1685019081150290604051600060405180830381858888f19350505050158015611663573d6000803e3d6000fd5b50505050565b60008160000160049054906101000a90046bffffffffffffffffffffffff168260040160049054906101000a900463ffffffff168360040160009054906101000a900463ffffffff160363ffffffff16026bffffffffffffffffffffffff16905091905056fea2646970667358221220777adba43392b0cc24efa8e34b397839473f67671c5ff2f7ba2c96cffff7419b64736f6c634300060c0033",
  "immutableReferences": {},
  "source": "// SPDX-License-Identifier: MIT\n\npragma solidity ^0.6.6;\n\nimport \"./TussleRandom.sol\";\n\ncontract TussleDAO {\n\n    struct Participant {\n        uint256   secret;\n        bytes32   commitment;\n        uint256   reward;\n        bool      revealed;\n        bool      rewarded;\n    }\n\n    struct TussleNetwork {\n        address caddr;\n        uint256 bountypot;\n    }\n\n    struct Campaign {\n        uint32    bnum;\n        uint96    deposit;\n        uint16    commitBalkline;\n        uint16    commitDeadline;\n\n        uint256   random;\n        bool      settled;\n        uint256   bountypot;\n        uint32    commitNum;\n        uint32    revealsNum;\n\n        mapping (address => TussleNetwork) TussleGroups;\n        mapping (address => Participant) participants;\n        mapping (bytes32 => bool) commitments;\n    }\n\n    uint256 public numCampaigns;\n    Campaign[] public campaigns;\n    \n    address public founder;\n    address public TussleRandomContractAddress=0xdD3782915140c8f3b190B5D67eAc6dc5760C46E9;\n\n    modifier blankAddress(address n) {if (n != address(0)) revert(); _;}\n\n    modifier moreThanZero(uint256 _deposit) {if (_deposit <= 0) revert(); _;}\n\n    modifier notBeBlank(bytes32 _s) {if (_s == \"\") revert(); _;}\n\n    modifier beBlank(bytes32 _s) {if (_s != \"\") revert(); _;}\n\n    modifier beFalse(bool _t) {if (_t) revert(); _;}\n\n    constructor() public {\n        founder = msg.sender;\n    }\n\n    event LogCampaignAdded(uint256 indexed campaignID,\n                            address indexed from,\n                            uint32 indexed bnum,\n                            uint96 deposit,\n                            uint16 commitBalkline,\n                            uint16 commitDeadline, \n                            uint256 bountypot);\n\n    modifier timeLineCheck(uint32 _bnum, uint16 _commitBalkline, uint16 _commitDeadline) {\n        if (block.number >= _bnum) revert();\n        if (_commitBalkline <= 0) revert();\n        if (_commitDeadline <= 0) revert();\n        if (_commitDeadline >= _commitBalkline) revert();\n        if (block.number >= _bnum - _commitBalkline) revert();\n        _;\n    } \n\n    function newCampaign(\n        uint32 _bnum,\n        uint96 _deposit,\n        uint16 _commitBalkline,\n        uint16 _commitDeadline\n    ) payable\n        timeLineCheck(_bnum, _commitBalkline, _commitDeadline)\n        moreThanZero(_deposit) external returns (uint256 _campaignID) {\n        _campaignID = campaigns.length;\n        Campaign storage c = campaigns[_campaignID];\n        numCampaigns++;\n        c.bnum = _bnum;\n        c.deposit = _deposit;\n        c.commitBalkline = _commitBalkline;\n        c.commitDeadline = _commitDeadline;\n        c.bountypot = msg.value;\n        c.TussleGroups[msg.sender] = TussleNetwork(msg.sender, msg.value);\n        emit LogCampaignAdded(_campaignID, msg.sender, _bnum, _deposit, _commitBalkline, _commitDeadline, msg.value);\n    }\n\n    event LogFollow(uint256 indexed CampaignId, address indexed from, uint256 bountypot);\n\n    function follow(uint256 _campaignID)\n        external payable returns (bool) {\n        Campaign storage c = campaigns[_campaignID];\n        TussleNetwork storage TussleNode = c.TussleGroups[msg.sender];\n        return followCampaign(_campaignID, c, TussleNode);\n    }\n\n    modifier checkFollowPhase(uint256 _bnum, uint16 _commitDeadline) {\n        if (block.number > _bnum - _commitDeadline) revert();\n        _;\n    }\n\n    function followCampaign(\n        uint256 _campaignID,\n        Campaign storage c,\n        TussleNetwork storage FractalNode\n    ) checkFollowPhase(c.bnum, c.commitDeadline)\n        blankAddress(FractalNode.caddr) internal returns (bool) {\n        c.bountypot += msg.value;\n        c.TussleGroups[msg.sender] = TussleNetwork(msg.sender, msg.value);\n        emit LogFollow(_campaignID, msg.sender, msg.value);\n        return true;\n    }\n\n    event LogCommit(uint256 indexed CampaignId, address indexed from, bytes32 commitment);\n\n    function commit(uint256 _campaignID, bytes32 _hs) notBeBlank(_hs) external payable {\n        Campaign storage c = campaigns[_campaignID];\n        commitmentCampaign(_campaignID, _hs, c);\n    }\n\n    modifier checkDeposit(uint256 _deposit) { if (msg.value != _deposit) revert(); _; }\n\n    modifier checkCommitPhase(uint256 _bnum, uint16 _commitBalkline, uint16 _commitDeadline) {\n        if (block.number < _bnum - _commitBalkline) revert();\n        if (block.number > _bnum - _commitDeadline) revert();\n        _;\n    }\n\n    function commitmentCampaign(\n        uint256 _campaignID,\n        bytes32 _hs,\n        Campaign storage c\n    ) checkDeposit(c.deposit)\n        checkCommitPhase(c.bnum, c.commitBalkline, c.commitDeadline)\n        beBlank(c.participants[msg.sender].commitment) internal {\n        if (c.commitments[_hs]) {\n            revert();\n        } else {\n            c.participants[msg.sender] = Participant(0, _hs, 0, false, false);\n            c.commitNum++;\n            c.commitments[_hs] = true;\n            emit LogCommit(_campaignID, msg.sender, _hs);\n        }\n    }\n\n    // For test\n    function getCommitment(uint256 _campaignID) external view returns (bytes32) {\n        Campaign storage c = campaigns[_campaignID];\n        Participant storage p = c.participants[msg.sender];\n        return p.commitment;\n    }\n\n    function shaCommit(uint256 _s) public pure returns (bytes32) {\n        return keccak256(abi.encodePacked(_s));\n    }\n\n    event LogReveal(uint256 indexed CampaignId, address indexed from, uint256 secret);\n\n    function reveal(uint256 _campaignID, uint256 _s) external {\n        Campaign storage c = campaigns[_campaignID];\n        Participant storage p = c.participants[msg.sender];\n        revealCampaign(_campaignID, _s, c, p);\n    }\n\n    modifier checkRevealPhase(uint256 _bnum, uint16 _commitDeadline) {\n        if (block.number <= _bnum - _commitDeadline) revert();\n        if (block.number >= _bnum) revert();\n        _;\n    }\n\n    modifier checkSecret(uint256 _s, bytes32 _commitment) {\n        if (keccak256(abi.encodePacked(_s)) != _commitment) revert();\n        _;\n    }\n\n    function revealCampaign(\n        uint256 _campaignID,\n        uint256 _s,\n        Campaign storage c,\n        Participant storage p\n    ) checkRevealPhase(c.bnum, c.commitDeadline)\n        checkSecret(_s, p.commitment)\n        beFalse(p.revealed) internal {\n        p.secret = _s;\n        p.revealed = true;\n        c.revealsNum++;\n        c.random ^= p.secret;\n        emit LogReveal(_campaignID, msg.sender, _s);\n    }\n\n    modifier bountyPhase(uint256 _bnum){if (block.number < _bnum) revert(); _;}\n    \n      \n    function getRandom(uint256 _campaignID) external returns (uint256) {\n        Campaign storage c = campaigns[_campaignID];\n        return returnRandom(c);\n    }\n\n    function returnRandom(Campaign storage c) internal bountyPhase(c.bnum) returns (uint256) {\n        if (c.revealsNum == c.commitNum ) {\n            c.settled = true;\n            bytes32 randomNumber;\n            uint256 TussleSeed = uint256(block.number);\n            TussleRandom tRandom = TussleRandom(TussleRandomContractAddress);\n            randomNumber = tRandom.getRandomNumber(TussleSeed);\n            return c.random + uint256(randomNumber);\n        }\n    }\n\n\n    // The commiter get his bounty and deposit, there are three situations\n    // 1. Campaign succeeds.Every revealer gets his deposit and the bounty.\n    // 2. Someone revels, but some does not,Campaign fails.\n    // The revealer can get the deposit and the fines are distributed.\n    // 3. Nobody reveals, Campaign fails.Every commiter can get his deposit.\n    \n    function getMyBounty(uint256 _campaignID) external {\n        Campaign storage c = campaigns[_campaignID];\n        Participant storage p = c.participants[msg.sender];\n        transferBounty(c, p);\n    }\n\n    function transferBounty(\n        Campaign storage c,\n        Participant storage p\n        ) bountyPhase(c.bnum)\n        beFalse(p.rewarded) internal {\n        if (c.revealsNum > 0) {\n            if (p.revealed) {\n                uint256 share = calculateShare(c);\n                returnReward(share, c, p);\n            }\n        // Nobody reveals\n        } else {\n            returnReward(0, c, p);\n        }\n    }\n\n    function calculateShare(Campaign storage c) internal view returns (uint256 _share) {\n        // Someone does not reveal. Campaign fails.\n        if (c.commitNum > c.revealsNum) {\n            _share = fines(c) / c.revealsNum;\n        // Campaign succeeds.\n        } else {\n            _share = c.bountypot / c.revealsNum;\n        }\n    }\n\n    function returnReward(\n        uint256 _share,\n        Campaign storage c,\n        Participant storage p\n    ) internal {\n        p.reward = _share;\n        p.rewarded = true;\n        msg.sender.transfer(_share + c.deposit);\n    }\n\n    function fines(Campaign storage c) internal view returns (uint256) {\n        return (c.commitNum - c.revealsNum) * c.deposit;\n    }\n\n    // If the campaign fails, the consumers can get back the bounty.\n    function refundBounty(uint256 _campaignID) external {\n        Campaign storage c = campaigns[_campaignID];\n        returnBounty(c);\n    }\n\n    modifier campaignFailed(uint32 _commitNum, uint32 _revealsNum) {\n        if (_commitNum == _revealsNum && _commitNum != 0) revert();\n        _;\n    }\n\n    modifier beConsumer(address _caddr) {\n        if (_caddr != msg.sender) revert();\n        _;\n    }\n\n    function returnBounty(Campaign storage c)\n        internal\n        bountyPhase(c.bnum)\n        campaignFailed(c.commitNum, c.revealsNum)\n        beConsumer(c.TussleGroups[msg.sender].caddr) {\n        uint256 bountypot = c.TussleGroups[msg.sender].bountypot;\n        c.TussleGroups[msg.sender].bountypot = 0;\n        msg.sender.transfer(bountypot);\n    }\n}\n",
  "sourcePath": "/Users/gokulalex/Apps/eth_apps/TussleNet/contracts/TussleDAO.sol",
  "compiler": {
    "name": "solc",
    "version": "0.6.12+commit.27d51765.Emscripten.clang"
  },
  "schemaVersion": "3.2.5",
  "updatedAt": "2020-09-27T14:56:04.062Z",
  "devdoc": {
    "kind": "dev",
    "methods": {},
    "version": 1
  },
  "userdoc": {
    "kind": "user",
    "methods": {},
    "version": 1
  }
}