{
  "contractName": "TussleConsensus",
  "abi": [
    {
      "anonymous": false,
      "inputs": [
        {
          "indexed": false,
          "internalType": "address[]",
          "name": "newSet",
          "type": "address[]"
        }
      ],
      "name": "ChangeFinalized",
      "type": "event"
    },
    {
      "anonymous": false,
      "inputs": [
        {
          "indexed": true,
          "internalType": "bytes32",
          "name": "parentHash",
          "type": "bytes32"
        },
        {
          "indexed": false,
          "internalType": "address[]",
          "name": "newSet",
          "type": "address[]"
        }
      ],
      "name": "InitiateChange",
      "type": "event"
    },
    {
      "anonymous": false,
      "inputs": [
        {
          "indexed": false,
          "internalType": "address",
          "name": "proxyStorage",
          "type": "address"
        }
      ],
      "name": "MoCInitializedProxyStorage",
      "type": "event"
    },
    {
      "inputs": [
        {
          "internalType": "uint256",
          "name": "",
          "type": "uint256"
        }
      ],
      "name": "currentValidators",
      "outputs": [
        {
          "internalType": "address",
          "name": "",
          "type": "address"
        }
      ],
      "stateMutability": "view",
      "type": "function"
    },
    {
      "inputs": [],
      "name": "finalized",
      "outputs": [
        {
          "internalType": "bool",
          "name": "",
          "type": "bool"
        }
      ],
      "stateMutability": "view",
      "type": "function"
    },
    {
      "inputs": [
        {
          "internalType": "uint256",
          "name": "",
          "type": "uint256"
        }
      ],
      "name": "pendingList",
      "outputs": [
        {
          "internalType": "address",
          "name": "",
          "type": "address"
        }
      ],
      "stateMutability": "view",
      "type": "function"
    },
    {
      "inputs": [],
      "name": "systemAddress",
      "outputs": [
        {
          "internalType": "address",
          "name": "",
          "type": "address"
        }
      ],
      "stateMutability": "view",
      "type": "function"
    },
    {
      "inputs": [
        {
          "internalType": "address",
          "name": "",
          "type": "address"
        }
      ],
      "name": "validatorsState",
      "outputs": [
        {
          "internalType": "bool",
          "name": "isValidator",
          "type": "bool"
        },
        {
          "internalType": "bool",
          "name": "isValidatorFinalized",
          "type": "bool"
        },
        {
          "internalType": "uint256",
          "name": "index",
          "type": "uint256"
        }
      ],
      "stateMutability": "view",
      "type": "function"
    },
    {
      "inputs": [],
      "name": "wasProxyStorageSet",
      "outputs": [
        {
          "internalType": "bool",
          "name": "",
          "type": "bool"
        }
      ],
      "stateMutability": "view",
      "type": "function"
    },
    {
      "inputs": [],
      "name": "isMasterOfCeremonyRemoved",
      "outputs": [
        {
          "internalType": "bool",
          "name": "",
          "type": "bool"
        }
      ],
      "stateMutability": "view",
      "type": "function"
    },
    {
      "inputs": [],
      "name": "isMasterOfCeremonyRemovedPending",
      "outputs": [
        {
          "internalType": "bool",
          "name": "",
          "type": "bool"
        }
      ],
      "stateMutability": "view",
      "type": "function"
    },
    {
      "inputs": [],
      "name": "masterOfCeremony",
      "outputs": [
        {
          "internalType": "address",
          "name": "",
          "type": "address"
        }
      ],
      "stateMutability": "view",
      "type": "function"
    },
    {
      "inputs": [],
      "name": "masterOfCeremonyPending",
      "outputs": [
        {
          "internalType": "address",
          "name": "",
          "type": "address"
        }
      ],
      "stateMutability": "view",
      "type": "function"
    },
    {
      "inputs": [],
      "name": "finalizeChange",
      "outputs": [],
      "stateMutability": "nonpayable",
      "type": "function"
    },
    {
      "inputs": [
        {
          "internalType": "address",
          "name": "_validator",
          "type": "address"
        },
        {
          "internalType": "bool",
          "name": "_shouldFireEvent",
          "type": "bool"
        }
      ],
      "name": "addValidator",
      "outputs": [
        {
          "internalType": "bool",
          "name": "",
          "type": "bool"
        }
      ],
      "stateMutability": "nonpayable",
      "type": "function"
    },
    {
      "inputs": [
        {
          "internalType": "address",
          "name": "_validator",
          "type": "address"
        },
        {
          "internalType": "bool",
          "name": "_shouldFireEvent",
          "type": "bool"
        }
      ],
      "name": "removeValidator",
      "outputs": [
        {
          "internalType": "bool",
          "name": "",
          "type": "bool"
        }
      ],
      "stateMutability": "nonpayable",
      "type": "function"
    },
    {
      "inputs": [
        {
          "internalType": "address",
          "name": "_newKey",
          "type": "address"
        },
        {
          "internalType": "address",
          "name": "_oldKey",
          "type": "address"
        }
      ],
      "name": "swapValidatorKey",
      "outputs": [
        {
          "internalType": "bool",
          "name": "",
          "type": "bool"
        }
      ],
      "stateMutability": "nonpayable",
      "type": "function"
    },
    {
      "inputs": [
        {
          "internalType": "address",
          "name": "_someone",
          "type": "address"
        }
      ],
      "name": "isValidator",
      "outputs": [
        {
          "internalType": "bool",
          "name": "",
          "type": "bool"
        }
      ],
      "stateMutability": "view",
      "type": "function"
    },
    {
      "inputs": [
        {
          "internalType": "address",
          "name": "_someone",
          "type": "address"
        }
      ],
      "name": "isValidatorFinalized",
      "outputs": [
        {
          "internalType": "bool",
          "name": "",
          "type": "bool"
        }
      ],
      "stateMutability": "view",
      "type": "function"
    },
    {
      "inputs": [],
      "name": "getCurrentValidatorsLength",
      "outputs": [
        {
          "internalType": "uint256",
          "name": "",
          "type": "uint256"
        }
      ],
      "stateMutability": "view",
      "type": "function"
    },
    {
      "inputs": [],
      "name": "getCurrentValidatorsLengthWithoutMoC",
      "outputs": [
        {
          "internalType": "uint256",
          "name": "",
          "type": "uint256"
        }
      ],
      "stateMutability": "view",
      "type": "function"
    }
  ],
  "bytecode": "0x608060405273fffffffffffffffffffffffffffffffffffffffe6000806101000a81548173ffffffffffffffffffffffffffffffffffffffff021916908373ffffffffffffffffffffffffffffffffffffffff1602179055506000600660146101000a81548160ff0219169083151502179055506000600660156101000a81548160ff0219169083151502179055506000600660166101000a81548160ff0219169083151502179055506000600660176101000a81548160ff0219169083151502179055503480156100d057600080fd5b506113f0806100e06000396000f3fe608060405234801561001057600080fd5b50600436106101165760003560e01c8063900eb5a8116100a2578063d3e848f111610071578063d3e848f114610435578063ec7de1e914610469578063f89a77b11461049d578063fa81b20014610503578063facd743b1461053757610116565b8063900eb5a81461037f578063a5f8b874146103d7578063a8756337146103f7578063b3f05b971461041557610116565b8063379fed9a116100e9578063379fed9a146102175780634110a4891461023757806375286211146102a1578063879736b2146102ab5780638f2eabe11461032557610116565b806303aca7921461011b5780630eaba26a1461017357806321a3fb8514610191578063273cb593146101f7575b600080fd5b6101476004803603602081101561013157600080fd5b8101908080359060200190929190505050610591565b604051808273ffffffffffffffffffffffffffffffffffffffff16815260200191505060405180910390f35b61017b6105cd565b6040518082815260200191505060405180910390f35b6101df600480360360408110156101a757600080fd5b81019080803573ffffffffffffffffffffffffffffffffffffffff1690602001909291908035151590602001909291905050506105da565b60405180821515815260200191505060405180910390f35b6101ff610608565b60405180821515815260200191505060405180910390f35b61021f61061f565b60405180821515815260200191505060405180910390f35b6102796004803603602081101561024d57600080fd5b81019080803573ffffffffffffffffffffffffffffffffffffffff169060200190929190505050610636565b6040518084151581526020018315158152602001828152602001935050505060405180910390f35b6102a961067a565b005b61030d600480360360408110156102c157600080fd5b81019080803573ffffffffffffffffffffffffffffffffffffffff169060200190929190803573ffffffffffffffffffffffffffffffffffffffff169060200190929190505050610930565b60405180821515815260200191505060405180910390f35b6103676004803603602081101561033b57600080fd5b81019080803573ffffffffffffffffffffffffffffffffffffffff169060200190929190505050610ac5565b60405180821515815260200191505060405180910390f35b6103ab6004803603602081101561039557600080fd5b8101908080359060200190929190505050610b81565b604051808273ffffffffffffffffffffffffffffffffffffffff16815260200191505060405180910390f35b6103df610bbd565b60405180821515815260200191505060405180910390f35b6103ff610bd0565b6040518082815260200191505060405180910390f35b61041d610c19565b60405180821515815260200191505060405180910390f35b61043d610c2c565b604051808273ffffffffffffffffffffffffffffffffffffffff16815260200191505060405180910390f35b610471610c50565b604051808273ffffffffffffffffffffffffffffffffffffffff16815260200191505060405180910390f35b6104eb600480360360408110156104b357600080fd5b81019080803573ffffffffffffffffffffffffffffffffffffffff169060200190929190803515159060200190929190505050610c7a565b60405180821515815260200191505060405180910390f35b61050b610ca8565b604051808273ffffffffffffffffffffffffffffffffffffffff16815260200191505060405180910390f35b6105796004803603602081101561054d57600080fd5b81019080803573ffffffffffffffffffffffffffffffffffffffff169060200190929190505050610cd2565b60405180821515815260200191505060405180910390f35b6002818154811061059e57fe5b906000526020600020016000915054906101000a900473ffffffffffffffffffffffffffffffffffffffff1681565b6000600180549050905090565b60006105e583610d2b565b156105fd576105f48383610d8b565b60019050610602565b600090505b92915050565b6000600660159054906101000a900460ff16905090565b6000600660149054906101000a900460ff16905090565b60036020528060005260406000206000915090508060000160009054906101000a900460ff16908060000160019054906101000a900460ff16908060010154905083565b60008054906101000a900473ffffffffffffffffffffffffffffffffffffffff1673ffffffffffffffffffffffffffffffffffffffff163373ffffffffffffffffffffffffffffffffffffffff161480156106e25750600660169054906101000a900460ff16155b6106eb57600080fd5b6001600660166101000a81548160ff02191690831515021790555060005b6002805490508110156107d2576000600360006002848154811061072957fe5b9060005260206000200160009054906101000a900473ffffffffffffffffffffffffffffffffffffffff1673ffffffffffffffffffffffffffffffffffffffff1673ffffffffffffffffffffffffffffffffffffffff16815260200190815260200160002090508060000160019054906101000a900460ff166107c45760018160000160016101000a81548160ff0219169083151502179055505b508080600101915050610709565b50600260019080546107e592919061132d565b50600073ffffffffffffffffffffffffffffffffffffffff16600560009054906101000a900473ffffffffffffffffffffffffffffffffffffffff1673ffffffffffffffffffffffffffffffffffffffff16146108e257600560009054906101000a900473ffffffffffffffffffffffffffffffffffffffff16600460006101000a81548173ffffffffffffffffffffffffffffffffffffffff021916908373ffffffffffffffffffffffffffffffffffffffff1602179055506000600560006101000a81548173ffffffffffffffffffffffffffffffffffffffff021916908373ffffffffffffffffffffffffffffffffffffffff1602179055505b600660159054906101000a900460ff161561092e576001600660146101000a81548160ff0219169083151502179055506000600660156101000a81548160ff0219169083151502179055505b565b600061093b82610f77565b158061094d575061094b83610d2b565b155b1561095b5760009050610abf565b610966826000610faf565b610971836000610d8b565b600460009054906101000a900473ffffffffffffffffffffffffffffffffffffffff1673ffffffffffffffffffffffffffffffffffffffff168273ffffffffffffffffffffffffffffffffffffffff161415610a095782600560006101000a81548173ffffffffffffffffffffffffffffffffffffffff021916908373ffffffffffffffffffffffffffffffffffffffff1602179055505b60014303407f55252fa6eee4741b4e24a74a70e9c11fd2c2281df8d6ea13126ff845f7825c89600260405180806020018281038252838181548152602001915080548015610aac57602002820191906000526020600020905b8160009054906101000a900473ffffffffffffffffffffffffffffffffffffffff1673ffffffffffffffffffffffffffffffffffffffff1681526020019060010190808311610a62575b50509250505060405180910390a2600190505b92915050565b600080600360008473ffffffffffffffffffffffffffffffffffffffff1673ffffffffffffffffffffffffffffffffffffffff16815260200190815260200160002060000160009054906101000a900460ff1690506000600360008573ffffffffffffffffffffffffffffffffffffffff1673ffffffffffffffffffffffffffffffffffffffff16815260200190815260200160002060000160019054906101000a900460ff169050818015610b785750805b92505050919050565b60018181548110610b8e57fe5b906000526020600020016000915054906101000a900473ffffffffffffffffffffffffffffffffffffffff1681565b600660179054906101000a900460ff1681565b6000600660149054906101000a900460ff1615610bf4576001805490509050610c16565b60006001805490501415610c0b5760009050610c16565b600180805490500390505b90565b600660169054906101000a900460ff1681565b60008054906101000a900473ffffffffffffffffffffffffffffffffffffffff1681565b6000600560009054906101000a900473ffffffffffffffffffffffffffffffffffffffff16905090565b6000610c8583610f77565b15610c9d57610c948383610faf565b60019050610ca2565b600090505b92915050565b6000600460009054906101000a900473ffffffffffffffffffffffffffffffffffffffff16905090565b6000600360008373ffffffffffffffffffffffffffffffffffffffff1673ffffffffffffffffffffffffffffffffffffffff16815260200190815260200160002060000160009054906101000a900460ff169050919050565b60008073ffffffffffffffffffffffffffffffffffffffff168273ffffffffffffffffffffffffffffffffffffffff161415610d6a5760009050610d86565b610d7382610cd2565b15610d815760009050610d86565b600190505b919050565b6040518060600160405280600115158152602001600015158152602001600280549050815250600360008473ffffffffffffffffffffffffffffffffffffffff1673ffffffffffffffffffffffffffffffffffffffff16815260200190815260200160002060008201518160000160006101000a81548160ff02191690831515021790555060208201518160000160016101000a81548160ff021916908315150217905550604082015181600101559050506002829080600181540180825580915050600190039060005260206000200160009091909190916101000a81548173ffffffffffffffffffffffffffffffffffffffff021916908373ffffffffffffffffffffffffffffffffffffffff1602179055506000600660166101000a81548160ff0219169083151502179055508015610f735760014303407f55252fa6eee4741b4e24a74a70e9c11fd2c2281df8d6ea13126ff845f7825c89600260405180806020018281038252838181548152602001915080548015610f6457602002820191906000526020600020905b8160009054906101000a900473ffffffffffffffffffffffffffffffffffffffff1673ffffffffffffffffffffffffffffffffffffffff1681526020019060010190808311610f1a575b50509250505060405180910390a25b5050565b6000806002805490501415610f8f5760009050610faa565b610f9882610cd2565b610fa55760009050610faa565b600190505b919050565b6000600360008473ffffffffffffffffffffffffffffffffffffffff1673ffffffffffffffffffffffffffffffffffffffff1681526020019081526020016000206001015490506000600160028054905003905060006002828154811061101257fe5b9060005260206000200160009054906101000a900473ffffffffffffffffffffffffffffffffffffffff169050806002848154811061104d57fe5b9060005260206000200160006101000a81548173ffffffffffffffffffffffffffffffffffffffff021916908373ffffffffffffffffffffffffffffffffffffffff16021790555082600360008373ffffffffffffffffffffffffffffffffffffffff1673ffffffffffffffffffffffffffffffffffffffff16815260200190815260200160002060010181905550600280549050506000600360008773ffffffffffffffffffffffffffffffffffffffff1673ffffffffffffffffffffffffffffffffffffffff168152602001908152602001600020600101819055506000600360008773ffffffffffffffffffffffffffffffffffffffff1673ffffffffffffffffffffffffffffffffffffffff16815260200190815260200160002060000160006101000a81548160ff0219169083151502179055506000600360008773ffffffffffffffffffffffffffffffffffffffff1673ffffffffffffffffffffffffffffffffffffffff16815260200190815260200160002060000160016101000a81548160ff0219169083151502179055506000600660166101000a81548160ff021916908315150217905550831561132657600460009054906101000a900473ffffffffffffffffffffffffffffffffffffffff1673ffffffffffffffffffffffffffffffffffffffff168573ffffffffffffffffffffffffffffffffffffffff161415611274576001600660156101000a81548160ff0219169083151502179055505b60014303407f55252fa6eee4741b4e24a74a70e9c11fd2c2281df8d6ea13126ff845f7825c8960026040518080602001828103825283818154815260200191508054801561131757602002820191906000526020600020905b8160009054906101000a900473ffffffffffffffffffffffffffffffffffffffff1673ffffffffffffffffffffffffffffffffffffffff16815260200190600101908083116112cd575b50509250505060405180910390a25b5050505050565b82805482825590600052602060002090810192821561136e5760005260206000209182015b8281111561136d578254825591600101919060010190611352565b5b50905061137b919061137f565b5090565b5b808211156113b657600081816101000a81549073ffffffffffffffffffffffffffffffffffffffff021916905550600101611380565b509056fea26469706673582212204ae7c8a34927a2ecfa7404b3386cb8bdbeacd115fc3d656c42024e433fc0ac4664736f6c634300060c0033",
  "immutableReferences": {},
  "source": "// SPDX-License-Identifier: MIT\n\npragma solidity ^0.6.6;\n\n\ncontract TussleConsensus {\n    \n    event InitiateChange(bytes32 indexed parentHash, address[] newSet);\n    event ChangeFinalized(address[] newSet);\n    event MoCInitializedProxyStorage(address proxyStorage);\n    \n    struct ValidatorState {\n        // Is this a validator.\n        bool isValidator;\n        // Is a validator finalized.\n        bool isValidatorFinalized;\n        // Index in the currentValidators.\n        uint256 index;\n    }\n    \n    address public systemAddress = 0xffffFFFfFFffffffffffffffFfFFFfffFFFfFFfE;\n    \n    address[] public currentValidators;\n    address[] public pendingList;\n    mapping(address => ValidatorState) public validatorsState;\n    \n    address internal _moc;\n    address internal _mocPending;\n    address internal _owner;\n\n    bool internal _isMoCRemoved = false;\n    bool internal _isMoCRemovedPending = false;\n\n    bool public finalized = false;\n    bool public wasProxyStorageSet = false;\n\n    modifier onlySystemAndNotFinalized() {\n        require(msg.sender == systemAddress && !finalized);\n        _;\n    }\n\n    function isMasterOfCeremonyRemoved() public view returns(bool) {\n        return _isMoCRemoved;\n    }\n\n    function isMasterOfCeremonyRemovedPending() public view returns(bool) {\n        return _isMoCRemovedPending;\n    }\n\n    function masterOfCeremony() public view returns(address) {\n        return _moc;\n    }\n\n    function masterOfCeremonyPending() public view returns(address) {\n        return _mocPending;\n    }\n\n   \n\n    /// Called when an initiated change reaches finality and is activated. \n    /// Only valid when msg.sender == SUPER_USER (EIP96, 2**160 - 2)\n    ///\n    /// Also called when the contract is first enabled for consensus. In this case,\n    /// the \"change\" finalized is the activation of the initial set.\n    \n    function finalizeChange() public onlySystemAndNotFinalized {\n        finalized = true;\n        for (uint256 i = 0; i < pendingList.length; i++) {\n            ValidatorState storage state = validatorsState[pendingList[i]];\n            if (!state.isValidatorFinalized) {\n                state.isValidatorFinalized = true;\n            }\n        }\n        currentValidators = pendingList;\n        if (_mocPending != address(0)) {\n            _moc = _mocPending;\n            _mocPending = address(0);\n        }\n        if (_isMoCRemovedPending) {\n            _isMoCRemoved = true;\n            _isMoCRemovedPending = false;\n        }\n\n    }\n\n    function addValidator(address _validator, bool _shouldFireEvent)\n        public\n        returns(bool)\n    {\n        if (_addValidatorAllowed(_validator)) {\n            _addValidator(_validator, _shouldFireEvent);\n            return true;\n        }\n        return false;\n    }\n\n    function removeValidator(\n        address _validator,\n        bool _shouldFireEvent\n    ) public  returns(bool) {\n        if (_removeValidatorAllowed(_validator)) {\n            _removeValidator(_validator, _shouldFireEvent);\n            return true;\n        }\n        return false;\n    }\n\n    function swapValidatorKey(address _newKey, address _oldKey)\n        public\n        returns(bool)\n    {\n        if (!_removeValidatorAllowed(_oldKey) || !_addValidatorAllowed(_newKey)) return false;\n        _removeValidator(_oldKey, false);\n        _addValidator(_newKey, false);\n        if (_oldKey == _moc) {\n            _mocPending = _newKey;\n        }\n        emit InitiateChange(blockhash(block.number - 1), pendingList);\n        return true;\n    }\n\n    \n\n    function isValidator(address _someone) public view returns(bool) {\n        return validatorsState[_someone].isValidator;\n    }\n\n    function isValidatorFinalized(address _someone) public view returns(bool) {\n        bool _isValidator = validatorsState[_someone].isValidator;\n        bool _isFinalized = validatorsState[_someone].isValidatorFinalized;\n        return _isValidator && _isFinalized;\n    }\n\n\n    function getCurrentValidatorsLength() public view returns(uint256) {\n        return currentValidators.length;\n    }\n\n    function getCurrentValidatorsLengthWithoutMoC() public view returns(uint256) {\n        if (_isMoCRemoved) {\n            return currentValidators.length;\n        }\n        if (currentValidators.length == 0) {\n            return 0;\n        }\n        return currentValidators.length - 1; // exclude MoC\n    }\n\n    function _addValidatorAllowed(address _validator) private view returns(bool) {\n        if (_validator == address(0)) return false;\n        if (isValidator(_validator)) return false;\n        return true;\n    }\n\n    function _addValidator(address _validator, bool _shouldFireEvent) private {\n        validatorsState[_validator] = ValidatorState({\n            isValidator: true,\n            isValidatorFinalized: false,\n            index: pendingList.length\n        });\n        pendingList.push(_validator);\n        finalized = false;\n        if (_shouldFireEvent) {\n            emit InitiateChange(blockhash(block.number - 1), pendingList);\n        }\n    }\n\n    function _removeValidatorAllowed(address _validator) private view returns(bool) {\n        if (pendingList.length == 0) return false;\n        if (!isValidator(_validator)) return false;\n        return true;\n    }\n\n    function _removeValidator(address _validator, bool _shouldFireEvent) private {\n        uint256 removedIndex = validatorsState[_validator].index;\n        // Can not remove the last validator.\n        uint256 lastIndex = pendingList.length - 1;\n        address lastValidator = pendingList[lastIndex];\n        // Override the removed validator with the last one.\n        pendingList[removedIndex] = lastValidator;\n        // Update the index of the last validator.\n        validatorsState[lastValidator].index = removedIndex;\n        pendingList.length;\n        validatorsState[_validator].index = 0;\n        validatorsState[_validator].isValidator = false;\n        validatorsState[_validator].isValidatorFinalized = false;\n        finalized = false;\n        if (_shouldFireEvent) {\n            if (_validator == _moc) {\n                _isMoCRemovedPending = true;\n            }\n            emit InitiateChange(blockhash(block.number - 1), pendingList);\n        }\n    }\n}\n",
  "sourcePath": "/Users/gokulalex/Apps/eth_apps/TussleNet/contracts/TussleConsensus.sol",
  "compiler": {
    "name": "solc",
    "version": "0.6.12+commit.27d51765.Emscripten.clang"
  },
  "schemaVersion": "3.2.5",
  "updatedAt": "2020-09-27T14:56:03.984Z",
  "devdoc": {
    "kind": "dev",
    "methods": {},
    "version": 1
  },
  "userdoc": {
    "kind": "user",
    "methods": {
      "finalizeChange()": {
        "notice": "Called when an initiated change reaches finality and is activated.  Only valid when msg.sender == SUPER_USER (EIP96, 2**160 - 2) Also called when the contract is first enabled for consensus. In this case, the \"change\" finalized is the activation of the initial set."
      }
    },
    "version": 1
  }
}